:020000040800F2
:10000000600600206D010008250300082103000898
:100010002303000827020008010600080000000072
:10002000000000000000000000000000A50400081F
:1000300029020008000000002703000851050008FD
:100040008701000887010008870100088701000870
:100050008701000887010008870100088701000860
:100060008701000887010008870100088701000850
:100070008701000887010008870100088701000840
:100080008701000887010008870100088701000830
:100090008701000887010008870100088701000820
:1000A0008701000887010008870100088701000810
:1000B0008701000887010008870100088701000800
:1000C00087010008870100088701000887010008F0
:1000D00087010008870100088701000887010008E0
:1000E00087010008870100088701000800F002F876
:1000F00000F02CF80AA090E8000C82448344AAF196
:100100000107DA4501D100F021F8AFF2090EBAE893
:100110000F0013F0010F18BFFB1A43F0010318473B
:100120003C0500004C0500000023002400250026AB
:10013000103A28BF78C1FBD8520728BF30C148BF4A
:100140000B6070471FB51FBD10B510BD00F031F832
:100150001146FFF7F7FF00F067FA00F04FF803B41D
:10016000FFF7F2FF03BC00F057F800000948804792
:1001700009480047FEE7FEE7FEE7FEE7FEE7FEE789
:10018000FEE7FEE7FEE7FEE704480549054A064BA1
:1001900070470000B1050008ED0000086000002075
:1001A0006006002060020020600200207047704757
:1001B0007047754600F02CF8AE4605006946534678
:1001C00020F00700854618B020B5FFF7DDFFBDE839
:1001D00020404FF000064FF000074FF000084FF0AE
:1001E000000B21F00701AC46ACE8C009ACE8C0093F
:1001F000ACE8C009ACE8C0098D46704710B50446AC
:10020000AFF300802046BDE81040FFF7A8BF000014
:10021000004870470000002001491820ABBEFEE7EF
:10022000260002007047FEE77047000004490A6894
:1002300022F010020A600A6802430A607047000058
:1002400000200240034A116801F0380101431160A7
:10025000704700000020024008B54FF40050ADF890
:10026000000003208DF8020010208DF8030069467D
:10027000014800F003F808BD00100140F0B5CC784B
:10028000002204F00F03E40601D58C7823430C7898
:100290004FF00F0C14F0FF0F4FF0010E1BD005684C
:1002A0000E880EFA02F42640A64210D196000CFAEF
:1002B00006F725EA070703FA06F5CE783D43282E10
:1002C00002D0482E02D002E0446100E00461521CDA
:1002D000082AE5D305600A88FF2A1CD94468002251
:1002E00002F108060EFA06F50E882E40AE420ED137
:1002F00096000CFA06F7BC4303FA06F7CE783C43A7
:10030000282E00D14561CE78482E00D10561521CBF
:10031000082AE5D34460F0BD416170470161704730
:10032000FEE7FEE770477047044A0029916901D053
:10033000014300E0814391617047000000100240DA
:1003400010B500F006F90121BDE810401020FFF7BC
:10035000EBBF00000C48016841F0010101604168F9
:100360000A4A114041600168094A11400160016870
:1003700021F480210160416821F4FE0141604FF4C5
:100380001F01816070470000001002400000FFF86C
:10039000FFFFF6FE034600205909094A01290AD049
:1003A00002290AD0516A03F01F02012393400B4235
:1003B00000D0012070471168F5E7116AF3E70000EB
:1003C000001002400248406800F00C007047000036
:1003D00000100240034A516821F0F00101435160CE
:1003E00070470000001002400B490A6822F4803276
:1003F0000A600A6822F480220A60B0F5803F07D0C4
:10040000B0F5802F03D1086840F4A0200860704741
:10041000086840F48030F9E700100240034A516850
:1004200021F4E06101435160704700000010024078
:10043000034A516821F4605141EAC000506070479E
:100440000010024001490866704700000000424267
:10045000034B5A68084322F47C12104358607047DB
:1004600000100240034A516821F00301014351602A
:10047000704700000010024018B500204FF4A0643F
:1004800000903120FFF786FF0099491C0091A1429E
:1004900001D00028F5D03120FFF77CFF002800D0E4
:1004A000012018BD704700000CB5002226480092BC
:1004B0000192016841F4803101604FF4A06301684A
:1004C00001F4003101910099491C0091019911B981
:1004D00000999942F3D10168890333D50121019133
:1004E0001A490A6842F010020A600A6822F0030200
:1004F0000A600A6842F002020A604168416041688D
:100500004160416841F480614160416821F47C119F
:100510004160416841F4E8114160016841F0807137
:10052000016001688901FCD5416821F00301416047
:10053000416841F0020141604168C1F38101022933
:10054000FAD10CBD01920CBD001002400020024007
:10055000704710B5FFF7FEFE4FF480342046FFF7DA
:1005600043FFFFF789FF012821D1FFF75FFE02203B
:10057000FFF768FE0020FFF72DFF0020FFF758FF70
:10058000A011FFF74BFF4FF4E0112046FFF760FF8B
:100590000120FFF757FF3920FFF7FCFE0028FAD0B3
:1005A0000220FFF75FFFFFF70DFF0828FBD110BD0A
:1005B0000F4810B5016841F00101016041680D4A22
:1005C0001140416001680C4A11400160016821F44A
:1005D00080210160416821F4FE0141604FF41F0158
:1005E0008160FFF761FF05494FF00060086010BDB2
:1005F000001002400000FFF8FFFFF6FE08ED00E0EB
:10060000FEE742F2283148434FF0E02148610023E1
:100610008B61012008610869C20701D0C003FAD5C7
:100620000B618B6170470000FFF78AFEFFF714FE35
:10063000094C4FF400564FF47A7531462046FFF7C7
:100640006DFE2846FFF7DDFF31462046FFF764FECA
:100650002846FFF7D6FFF0E7001001406C060008BF
:0C066000000000206006000028010008D7
:04000005080000ED02
:00000001FF
